:020000040000FA
:100000000A128A11EA2FFF1B0D2883137F1883170A
:100010000008840A0319FF0A080000308A00040857
:10002000840A8207003420342034203420342034E1
:100030002034203420342034203420342034203420
:1000400020342034203400345434753474346F3404
:100050007234693461346C3420344534433433347D
:0A0060003034383431343A340034BF
:100BA400831603138511880187010800F03083162A
:100BB400031386007F30FF007F088105080030346E
:100BC4003034303430343134343437342A343234F9
:100BD4003534383430343334363439342334F20051
:100BE4008312031387107208880007140730F1007A
:100BF4007D30F000F00BFC2DF10BFC2D8312031360
:100C0400071008007E088A007F0882000A128A11F1
:100C140004260A128A118000840A04087D06031936
:100C24000034FF0A0319FE0A082EF200831203138C
:100C340087147208880007140D30F100FB30F000AF
:100C4400F00B222EF10B222E272E831203130710F2
:100C54000800F40074080F39F4007303031D332EE5
:100C6400342E3C2E7408803E0A128A11F1250A1291
:100C74008A11432E7408C03E0A128A11F1250A1201
:100C84008A110800FC30FF007F08831603138705D0
:100C9400880138300A128A11F1250A128A110C309F
:100CA4000A128A11F1250A128A1106300A128A11CF
:100CB400F1250A128A1101300A128A11F1250A1249
:100CC4008A110800792E7408FF00730884000A1240
:100CD4008A1103200A128A110A128A1117260A128B
:100CE4008A110130F3070318F40A0030F40774087A
:100CF40083120313FF00730884000A128A1103206D
:100D04000A128A11003A031D882E892E652E0800C6
:100D14000A128A11D2250A128A110A128A11442649
:100D24000A128A110A128A11D8250A128A11F301A9
:100D3400F30A00300A128A112B260A128A11123081
:100D4400F3008030F4000A128A1164260A128A1110
:100D54000A128A11F3260A128A11F800F501F60123
:100D64007808F500F6010230F30000300A128A1107
:100D74002B260A128A117530F3000030F4000A128F
:100D84008A1164260A128A110A128A11F3260A1297
:100D94008A11F700770878060319D12ED22EC62EB1
:100DA4007708F8007808F5000230F30000300A12E2
:100DB4008A112B260A128A110130F3008030F400C4
:100DC4000A128A1164260A128A110230F3000030D2
:100DD4000A128A112B260A128A11BD2E0A128A11AE
:100DE4000028831203138601061EF92EFA2E6C2F97
:100DF400861EFD2EFE2E6C2F061F012F022F6C2F38
:100E0400861B052F062FF62E6C2F861586190B2FA1
:100E14000F2F831203130615122F831203130611C7
:100E24000619152F192F8312031386141C2F8312EE
:100E340003138610061E1F2F202F2C2F861E232FF0
:100E4400242F2C2F061F272F282F2C2F861B2B2FC8
:100E54002C2F2E2FFC017C2F8610061E322F332FB1
:100E64003F2F861E362F372F3F2F061F3A2F3B2F3B
:100E74003F2F861B3E2F3F2F422FFC01FC0A7C2F65
:100E840006118614061E472F482F542F861E4B2FFB
:100E94004C2F542F061F4F2F502F542F861B532F88
:100EA400542F572F0230FC007C2F86110615061E86
:100EB4005C2F5D2F692F861E602F612F692F061FFF
:100EC400642F652F692F861B682F692F6C2F0330C1
:100ED400FC007C2F061E6F2F702F072F861E732F8A
:100EE400742F072F061F772F782F072F861F7B2F2E
:100EF4007C2F072F061A7F2F802F8E2F861E832F7D
:100F0400842F8E2F061F872F882F8E2F861F8B2FBF
:100F14008C2F8E2FFB01C72F061E912F922FA12FEE
:100F2400861A952F962FA12F061F992F9A2FA12F3E
:100F3400861F9D2F9E2FA12FFB01FB0AC72F061E84
:100F4400A42FA52FB42F861EA82FA92FB42F061BBC
:100F5400AC2FAD2FB42F861FB02FB12FB42F02307A
:100F6400FB00C72F061EB72FB82FC72F861EBB2F17
:100F7400BC2FC72F061FBF2FC02FC72F861BC32F01
:100F8400C42FC72F0330FB00C72F061ECA2FCB2F39
:100F9400C72F861ECE2FCF2FC72F061FD22FD32F9A
:100FA400C72F861FD62FD72FC72F7C08F0000230FB
:100FB4000310F00DFF3E031DDA2F20307007F100FF
:100FC4007B087107F200720884008313000808008C
:100FD40083133030FD000530FE00E130FF00203087
:100FE40084000A128A1108260A128A11F901FA01E8
:0C0FF400FB01FC0183010A128A118A2E05
:02400E007A3FF7
:00000001FF
